{
  "_format": "hh-sol-artifact-1",
  "contractName": "ASIIndex",
  "sourceName": "contracts/ASIIndex.sol",
  "abi": [
    {
      "inputs": [],
      "stateMutability": "nonpayable",
      "type": "constructor"
    },
    {
      "inputs": [
        {
          "internalType": "address",
          "name": "owner",
          "type": "address"
        }
      ],
      "name": "OwnableInvalidOwner",
      "type": "error"
    },
    {
      "inputs": [
        {
          "internalType": "address",
          "name": "account",
          "type": "address"
        }
      ],
      "name": "OwnableUnauthorizedAccount",
      "type": "error"
    },
    {
      "inputs": [],
      "name": "ReentrancyGuardReentrantCall",
      "type": "error"
    },
    {
      "anonymous": false,
      "inputs": [
        {
          "indexed": true,
          "internalType": "uint256",
          "name": "entryId",
          "type": "uint256"
        },
        {
          "indexed": false,
          "internalType": "uint256",
          "name": "timestamp",
          "type": "uint256"
        }
      ],
      "name": "EntryDeactivated",
      "type": "event"
    },
    {
      "anonymous": false,
      "inputs": [
        {
          "indexed": true,
          "internalType": "uint256",
          "name": "entryId",
          "type": "uint256"
        },
        {
          "indexed": true,
          "internalType": "string",
          "name": "cid",
          "type": "string"
        },
        {
          "indexed": true,
          "internalType": "address",
          "name": "owner",
          "type": "address"
        },
        {
          "indexed": false,
          "internalType": "uint8",
          "name": "stateValue",
          "type": "uint8"
        },
        {
          "indexed": false,
          "internalType": "uint256",
          "name": "timestamp",
          "type": "uint256"
        }
      ],
      "name": "EntryRegistered",
      "type": "event"
    },
    {
      "anonymous": false,
      "inputs": [
        {
          "indexed": true,
          "internalType": "uint256",
          "name": "entryId",
          "type": "uint256"
        },
        {
          "indexed": true,
          "internalType": "string",
          "name": "cid",
          "type": "string"
        },
        {
          "indexed": false,
          "internalType": "uint256",
          "name": "timestamp",
          "type": "uint256"
        }
      ],
      "name": "EntryUpdated",
      "type": "event"
    },
    {
      "anonymous": false,
      "inputs": [
        {
          "indexed": true,
          "internalType": "address",
          "name": "previousOwner",
          "type": "address"
        },
        {
          "indexed": true,
          "internalType": "address",
          "name": "newOwner",
          "type": "address"
        }
      ],
      "name": "OwnershipTransferred",
      "type": "event"
    },
    {
      "anonymous": false,
      "inputs": [
        {
          "indexed": true,
          "internalType": "uint256",
          "name": "entryId",
          "type": "uint256"
        },
        {
          "indexed": true,
          "internalType": "string",
          "name": "tag",
          "type": "string"
        }
      ],
      "name": "TagAdded",
      "type": "event"
    },
    {
      "inputs": [],
      "name": "MAX_EMBEDDING_SIZE",
      "outputs": [
        {
          "internalType": "uint256",
          "name": "",
          "type": "uint256"
        }
      ],
      "stateMutability": "view",
      "type": "function"
    },
    {
      "inputs": [],
      "name": "MAX_TAGS",
      "outputs": [
        {
          "internalType": "uint256",
          "name": "",
          "type": "uint256"
        }
      ],
      "stateMutability": "view",
      "type": "function"
    },
    {
      "inputs": [
        {
          "internalType": "uint256",
          "name": "_entryId",
          "type": "uint256"
        }
      ],
      "name": "deactivateEntry",
      "outputs": [],
      "stateMutability": "nonpayable",
      "type": "function"
    },
    {
      "inputs": [
        {
          "internalType": "uint256",
          "name": "",
          "type": "uint256"
        }
      ],
      "name": "entries",
      "outputs": [
        {
          "internalType": "uint256",
          "name": "entryId",
          "type": "uint256"
        },
        {
          "internalType": "string",
          "name": "cid",
          "type": "string"
        },
        {
          "internalType": "bytes",
          "name": "embedding",
          "type": "bytes"
        },
        {
          "internalType": "uint8",
          "name": "stateValue",
          "type": "uint8"
        },
        {
          "internalType": "uint256",
          "name": "timestamp",
          "type": "uint256"
        },
        {
          "internalType": "address",
          "name": "owner",
          "type": "address"
        },
        {
          "internalType": "bool",
          "name": "isActive",
          "type": "bool"
        }
      ],
      "stateMutability": "view",
      "type": "function"
    },
    {
      "inputs": [
        {
          "internalType": "uint256[]",
          "name": "_entryIds",
          "type": "uint256[]"
        }
      ],
      "name": "getBatchEntries",
      "outputs": [
        {
          "components": [
            {
              "internalType": "uint256",
              "name": "entryId",
              "type": "uint256"
            },
            {
              "internalType": "string",
              "name": "cid",
              "type": "string"
            },
            {
              "internalType": "string[]",
              "name": "tags",
              "type": "string[]"
            },
            {
              "internalType": "bytes",
              "name": "embedding",
              "type": "bytes"
            },
            {
              "internalType": "uint8",
              "name": "stateValue",
              "type": "uint8"
            },
            {
              "internalType": "uint256",
              "name": "timestamp",
              "type": "uint256"
            },
            {
              "internalType": "address",
              "name": "owner",
              "type": "address"
            },
            {
              "internalType": "bool",
              "name": "isActive",
              "type": "bool"
            }
          ],
          "internalType": "struct ASIIndex.Entry[]",
          "name": "",
          "type": "tuple[]"
        }
      ],
      "stateMutability": "view",
      "type": "function"
    },
    {
      "inputs": [
        {
          "internalType": "address",
          "name": "_owner",
          "type": "address"
        }
      ],
      "name": "getEntriesByOwner",
      "outputs": [
        {
          "internalType": "uint256[]",
          "name": "",
          "type": "uint256[]"
        }
      ],
      "stateMutability": "view",
      "type": "function"
    },
    {
      "inputs": [
        {
          "internalType": "uint8",
          "name": "_stateValue",
          "type": "uint8"
        }
      ],
      "name": "getEntriesByState",
      "outputs": [
        {
          "internalType": "uint256[]",
          "name": "",
          "type": "uint256[]"
        }
      ],
      "stateMutability": "view",
      "type": "function"
    },
    {
      "inputs": [
        {
          "internalType": "string",
          "name": "_tag",
          "type": "string"
        }
      ],
      "name": "getEntriesByTag",
      "outputs": [
        {
          "internalType": "uint256[]",
          "name": "",
          "type": "uint256[]"
        }
      ],
      "stateMutability": "view",
      "type": "function"
    },
    {
      "inputs": [
        {
          "internalType": "uint256",
          "name": "_entryId",
          "type": "uint256"
        }
      ],
      "name": "getEntry",
      "outputs": [
        {
          "components": [
            {
              "internalType": "uint256",
              "name": "entryId",
              "type": "uint256"
            },
            {
              "internalType": "string",
              "name": "cid",
              "type": "string"
            },
            {
              "internalType": "string[]",
              "name": "tags",
              "type": "string[]"
            },
            {
              "internalType": "bytes",
              "name": "embedding",
              "type": "bytes"
            },
            {
              "internalType": "uint8",
              "name": "stateValue",
              "type": "uint8"
            },
            {
              "internalType": "uint256",
              "name": "timestamp",
              "type": "uint256"
            },
            {
              "internalType": "address",
              "name": "owner",
              "type": "address"
            },
            {
              "internalType": "bool",
              "name": "isActive",
              "type": "bool"
            }
          ],
          "internalType": "struct ASIIndex.Entry",
          "name": "",
          "type": "tuple"
        }
      ],
      "stateMutability": "view",
      "type": "function"
    },
    {
      "inputs": [
        {
          "internalType": "uint256",
          "name": "_entryId",
          "type": "uint256"
        }
      ],
      "name": "getEntryEmbedding",
      "outputs": [
        {
          "internalType": "bytes",
          "name": "",
          "type": "bytes"
        }
      ],
      "stateMutability": "view",
      "type": "function"
    },
    {
      "inputs": [],
      "name": "getStateStatistics",
      "outputs": [
        {
          "internalType": "uint8[]",
          "name": "states",
          "type": "uint8[]"
        },
        {
          "internalType": "uint256[]",
          "name": "counts",
          "type": "uint256[]"
        }
      ],
      "stateMutability": "view",
      "type": "function"
    },
    {
      "inputs": [],
      "name": "getTotalEntries",
      "outputs": [
        {
          "internalType": "uint256",
          "name": "",
          "type": "uint256"
        }
      ],
      "stateMutability": "view",
      "type": "function"
    },
    {
      "inputs": [
        {
          "internalType": "uint256",
          "name": "_entryId",
          "type": "uint256"
        }
      ],
      "name": "isEntryActive",
      "outputs": [
        {
          "internalType": "bool",
          "name": "",
          "type": "bool"
        }
      ],
      "stateMutability": "view",
      "type": "function"
    },
    {
      "inputs": [],
      "name": "owner",
      "outputs": [
        {
          "internalType": "address",
          "name": "",
          "type": "address"
        }
      ],
      "stateMutability": "view",
      "type": "function"
    },
    {
      "inputs": [
        {
          "internalType": "address",
          "name": "",
          "type": "address"
        },
        {
          "internalType": "uint256",
          "name": "",
          "type": "uint256"
        }
      ],
      "name": "ownerEntries",
      "outputs": [
        {
          "internalType": "uint256",
          "name": "",
          "type": "uint256"
        }
      ],
      "stateMutability": "view",
      "type": "function"
    },
    {
      "inputs": [
        {
          "internalType": "string",
          "name": "_cid",
          "type": "string"
        },
        {
          "internalType": "string[]",
          "name": "_tags",
          "type": "string[]"
        },
        {
          "internalType": "bytes",
          "name": "_embedding",
          "type": "bytes"
        },
        {
          "internalType": "uint256",
          "name": "_timestamp",
          "type": "uint256"
        }
      ],
      "name": "registerEntry",
      "outputs": [
        {
          "internalType": "uint256",
          "name": "",
          "type": "uint256"
        }
      ],
      "stateMutability": "nonpayable",
      "type": "function"
    },
    {
      "inputs": [
        {
          "internalType": "string",
          "name": "_cid",
          "type": "string"
        },
        {
          "internalType": "string[]",
          "name": "_tags",
          "type": "string[]"
        },
        {
          "internalType": "bytes",
          "name": "_embedding",
          "type": "bytes"
        },
        {
          "internalType": "uint8",
          "name": "_stateValue",
          "type": "uint8"
        },
        {
          "internalType": "uint256",
          "name": "_timestamp",
          "type": "uint256"
        }
      ],
      "name": "registerHybridEntry",
      "outputs": [
        {
          "internalType": "uint256",
          "name": "",
          "type": "uint256"
        }
      ],
      "stateMutability": "nonpayable",
      "type": "function"
    },
    {
      "inputs": [],
      "name": "renounceOwnership",
      "outputs": [],
      "stateMutability": "nonpayable",
      "type": "function"
    },
    {
      "inputs": [
        {
          "internalType": "string",
          "name": "",
          "type": "string"
        },
        {
          "internalType": "uint256",
          "name": "",
          "type": "uint256"
        }
      ],
      "name": "tagEntries",
      "outputs": [
        {
          "internalType": "uint256",
          "name": "",
          "type": "uint256"
        }
      ],
      "stateMutability": "view",
      "type": "function"
    },
    {
      "inputs": [
        {
          "internalType": "address",
          "name": "newOwner",
          "type": "address"
        }
      ],
      "name": "transferOwnership",
      "outputs": [],
      "stateMutability": "nonpayable",
      "type": "function"
    },
    {
      "inputs": [
        {
          "internalType": "uint256",
          "name": "_entryId",
          "type": "uint256"
        },
        {
          "internalType": "string",
          "name": "_cid",
          "type": "string"
        },
        {
          "internalType": "bytes",
          "name": "_embedding",
          "type": "bytes"
        }
      ],
      "name": "updateEntry",
      "outputs": [],
      "stateMutability": "nonpayable",
      "type": "function"
    }
  ],
  "bytecode": "0x6080604052600160055534801561001557600080fd5b50338061003c57604051631e4fbdf760e01b81526000600482015260240160405180910390fd5b6100458161004f565b506001805561009f565b600080546001600160a01b038381166001600160a01b0319831681178455604051919092169283917f8be0079c531659141344cd1fd0a4f28419497f9722a3daafe3b4186f6b6457e09190a35050565b6125da80620000af6000396000f3fe608060405234801561001057600080fd5b50600436106101375760003560e01c80639df19170116100b8578063cc8a9d7e1161007c578063cc8a9d7e146102b7578063cce67226146102cd578063cdc78895146102d5578063d4d74306146102e8578063e8f004f7146102fb578063f2fde38b1461030457600080fd5b80639df1917014610238578063a84322fb1461024b578063ad4381471461025e578063b30906d414610271578063bae78d7b1461029757600080fd5b8063793936a9116100ff578063793936a9146101b45780637a7a3649146101c75780638da5cb5b146101e75780638f37c5401461020257806394dc43051461021557600080fd5b806301aefcd61461013c57806312d491c91461016257806349167fa11461016a5780635d9ba7881461018a578063715018a6146101aa575b600080fd5b61014f61014a366004611bdf565b610317565b6040519081526020015b60405180910390f35b61014f610348565b61017d610178366004611c72565b61035e565b6040516101599190611e46565b61019d610198366004611eaa565b6106f2565b6040516101599190611ec3565b6101b2610818565b005b61014f6101c2366004611fe7565b61082c565b6101da6101d5366004612087565b610b17565b60405161015991906120de565b6000546040516001600160a01b039091168152602001610159565b6101da6102103660046120f1565b610c8d565b610228610223366004611eaa565b610cfc565b6040519015158152602001610159565b6101da610246366004612125565b610d2d565b6101b2610259366004612140565b610d97565b6101b261026c366004611eaa565b610f65565b61028461027f366004611eaa565b6110c3565b60405161015997969594939291906121ac565b6102aa6102a5366004611eaa565b611221565b604051610159919061220c565b6102bf6114b5565b60405161015992919061221f565b61014f600a81565b61014f6102e336600461227a565b6116c5565b61014f6102f63660046122be565b6116f0565b61014f61040081565b6101b2610312366004612125565b6119d1565b6003602052816000526040600020818154811061033357600080fd5b90600052602060002001600091509150505481565b600060016005546103599190612363565b905090565b6060600082516001600160401b0381111561037b5761037b611c09565b6040519080825280602002602001820160405280156103b457816020015b6103a1611ab3565b8152602001906001900390816103995790505b50905060005b83518110156106eb576005548482815181106103d8576103d8612376565b6020026020010151106104465760405162461bcd60e51b815260206004820152602b60248201527f45696e206f646572206d6568726572652045696e74726165676520657869737460448201526a1a595c995b881b9a58da1d60aa1b60648201526084015b60405180910390fd5b6002600085838151811061045c5761045c612376565b6020026020010151815260200190815260200160002060405180610100016040529081600082015481526020016001820180546104989061238c565b80601f01602080910402602001604051908101604052809291908181526020018280546104c49061238c565b80156105115780601f106104e657610100808354040283529160200191610511565b820191906000526020600020905b8154815290600101906020018083116104f457829003601f168201915b5050505050815260200160028201805480602002602001604051908101604052809291908181526020016000905b828210156105eb57838290600052602060002001805461055e9061238c565b80601f016020809104026020016040519081016040528092919081815260200182805461058a9061238c565b80156105d75780601f106105ac576101008083540402835291602001916105d7565b820191906000526020600020905b8154815290600101906020018083116105ba57829003601f168201915b50505050508152602001906001019061053f565b5050505081526020016003820180546106039061238c565b80601f016020809104026020016040519081016040528092919081815260200182805461062f9061238c565b801561067c5780601f106106515761010080835404028352916020019161067c565b820191906000526020600020905b81548152906001019060200180831161065f57829003601f168201915b5050509183525050600482015460ff9081166020830152600583015460408301526006909201546001600160a01b0381166060830152600160a01b9004909116151560809091015282518390839081106106d8576106d8612376565b60209081029190910101526001016103ba565b5092915050565b606060055482106107155760405162461bcd60e51b815260040161043d906123c6565b600082815260026020526040902060060154600160a01b900460ff166107775760405162461bcd60e51b8152602060048201526017602482015276115a5b9d1c9859c81a5cdd081919585add1a5d9a595c9d604a1b604482015260640161043d565b600082815260026020526040902060030180546107939061238c565b80601f01602080910402602001604051908101604052809291908181526020018280546107bf9061238c565b801561080c5780601f106107e15761010080835404028352916020019161080c565b820191906000526020600020905b8154815290600101906020018083116107ef57829003601f168201915b50505050509050919050565b610820611a0c565b61082a6000611a39565b565b6000610836611a89565b60008651116108575760405162461bcd60e51b815260040161043d906123fd565b600a855111156108995760405162461bcd60e51b815260206004820152600d60248201526c5a75207669656c65205461677360981b604482015260640161043d565b610400845111156108bc5760405162461bcd60e51b815260040161043d90612434565b6000821161090c5760405162461bcd60e51b815260206004820152601b60248201527f54696d657374616d70206d7573732067657365747a74207365696e0000000000604482015260640161043d565b600580546000918261091d83612460565b9091555060008181526002602052604090208181559091506001810161094389826124c9565b50865161095990600283019060208a0190611b06565b506003810161096887826124c9565b5060048101805460ff871660ff199091161790556005810184905560068101805460ff60a01b19339081166001600160a81b031990921691909117600160a01b17909155600090815260036020908152604082208054600181018255908352908220018390555b8751811015610aac5760008882815181106109ec576109ec612376565b6020026020010151511115610aa4576004888281518110610a0f57610a0f612376565b6020026020010151604051610a249190612588565b9081526040516020918190038201902080546001810182556000918252919020018390558751889082908110610a5c57610a5c612376565b6020026020010151604051610a719190612588565b6040519081900381209084907f9da4103e4415d3054fe6fa0d64f2d023c294f27bba819d1414f0f6eb3fc80cfd90600090a35b6001016109cf565b506040513390610abd908a90612588565b6040805191829003822060ff89168352602083018890529185917fd7f3699bdf529173e3144f5c4e0206fa4bacb3e8773f66c5aac3dcd778d80986910160405180910390a4509050610b0e60018055565b95945050505050565b606060006001600554610b2a9190612363565b6001600160401b03811115610b4157610b41611c09565b604051908082528060200260200182016040528015610b6a578160200160208202803683370190505b509050600060015b600554811015610bf357600081815260026020526040902060060154600160a01b900460ff168015610bba575060008181526002602052604090206004015460ff8681169116145b15610beb5780838381518110610bd257610bd2612376565b602090810291909101015281610be781612460565b9250505b600101610b72565b506000816001600160401b03811115610c0e57610c0e611c09565b604051908082528060200260200182016040528015610c37578160200160208202803683370190505b50905060005b82811015610c8457838181518110610c5757610c57612376565b6020026020010151828281518110610c7157610c71612376565b6020908102919091010152600101610c3d565b50949350505050565b6060600482604051610c9f9190612588565b908152604080519182900360209081018320805480830285018301909352828452919083018282801561080c57602002820191906000526020600020905b815481526020019060010190808311610cdd5750505050509050919050565b600060055482108015610d275750600082815260026020526040902060060154600160a01b900460ff165b92915050565b6001600160a01b03811660009081526003602090815260409182902080548351818402810184019094528084526060939283018282801561080c5760200282019190600052602060002090815481526020019060010190808311610cdd5750505050509050919050565b610d9f611a89565b6005548310610dc05760405162461bcd60e51b815260040161043d906123c6565b6000838152600260205260409020600601546001600160a01b03163314610e295760405162461bcd60e51b815260206004820152601c60248201527f4e7572204f776e6572206b616e6e20616b7475616c6973696572656e00000000604482015260640161043d565b600083815260026020526040902060060154600160a01b900460ff16610e8b5760405162461bcd60e51b8152602060048201526017602482015276115a5b9d1c9859c81a5cdd081919585add1a5d9a595c9d604a1b604482015260640161043d565b6000825111610eac5760405162461bcd60e51b815260040161043d906123fd565b61040081511115610ecf5760405162461bcd60e51b815260040161043d90612434565b6000838152600260205260409020600101610eea83826124c9565b506000838152600260205260409020600301610f0682826124c9565b5081604051610f159190612588565b6040518091039020837f5325e0f14a3e19435fe5968842d08f969d0d84ae7c189ae2c90b9f7e6feebdd142604051610f4f91815260200190565b60405180910390a3610f6060018055565b505050565b610f6d611a89565b6005548110610f8e5760405162461bcd60e51b815260040161043d906123c6565b6000818152600260205260409020600601546001600160a01b03163314610ff75760405162461bcd60e51b815260206004820152601b60248201527f4e7572204f776e6572206b616e6e206465616b746976696572656e0000000000604482015260640161043d565b600081815260026020526040902060060154600160a01b900460ff1661105f5760405162461bcd60e51b815260206004820152601b60248201527f45696e747261672062657265697473206465616b746976696572740000000000604482015260640161043d565b60008181526002602052604090819020600601805460ff60a01b191690555181907fd3a8e71ae5406b801c9a91d5a4413add9d8d8f253ccd78869226cd3025072491906110af9042815260200190565b60405180910390a26110c060018055565b50565b600260205260009081526040902080546001820180549192916110e59061238c565b80601f01602080910402602001604051908101604052809291908181526020018280546111119061238c565b801561115e5780601f106111335761010080835404028352916020019161115e565b820191906000526020600020905b81548152906001019060200180831161114157829003601f168201915b5050505050908060030180546111739061238c565b80601f016020809104026020016040519081016040528092919081815260200182805461119f9061238c565b80156111ec5780601f106111c1576101008083540402835291602001916111ec565b820191906000526020600020905b8154815290600101906020018083116111cf57829003601f168201915b50505060048401546005850154600690950154939460ff918216949093506001600160a01b0381169250600160a01b90041687565b611229611ab3565b600554821061124a5760405162461bcd60e51b815260040161043d906123c6565b6002600083815260200190815260200160002060405180610100016040529081600082015481526020016001820180546112839061238c565b80601f01602080910402602001604051908101604052809291908181526020018280546112af9061238c565b80156112fc5780601f106112d1576101008083540402835291602001916112fc565b820191906000526020600020905b8154815290600101906020018083116112df57829003601f168201915b5050505050815260200160028201805480602002602001604051908101604052809291908181526020016000905b828210156113d65783829060005260206000200180546113499061238c565b80601f01602080910402602001604051908101604052809291908181526020018280546113759061238c565b80156113c25780601f10611397576101008083540402835291602001916113c2565b820191906000526020600020905b8154815290600101906020018083116113a557829003601f168201915b50505050508152602001906001019061132a565b5050505081526020016003820180546113ee9061238c565b80601f016020809104026020016040519081016040528092919081815260200182805461141a9061238c565b80156114675780601f1061143c57610100808354040283529160200191611467565b820191906000526020600020905b81548152906001019060200180831161144a57829003601f168201915b5050509183525050600482015460ff9081166020830152600583015460408301526006909201546001600160a01b0381166060830152600160a01b9004909116151560809091015292915050565b60408051610100808252612020820190925260609182916000916020820161200080368337019050509050600060015b60055481101561159057600081815260026020526040902060060154600160a01b900460ff161561158857600081815260026020526040902060040154835160ff9091169084908290811061153c5761153c612376565b6020026020010151600003611559578261155581612460565b9350505b838160ff168151811061156e5761156e612376565b60200260200101805180919061158390612460565b905250505b6001016114e5565b50806001600160401b038111156115a9576115a9611c09565b6040519080825280602002602001820160405280156115d2578160200160208202803683370190505b509350806001600160401b038111156115ed576115ed611c09565b604051908082528060200260200182016040528015611616578160200160208202803683370190505b5092506000805b6101008110156116bd57600084828151811061163b5761163b612376565b602002602001015111156116b5578086838151811061165c5761165c612376565b602002602001019060ff16908160ff168152505083818151811061168257611682612376565b602002602001015185838151811061169c5761169c612376565b6020908102919091010152816116b181612460565b9250505b60010161161d565b505050509091565b8151602081840181018051600482529282019185019190912091905280548290811061033357600080fd5b60006116fa611a89565b600085511161171b5760405162461bcd60e51b815260040161043d906123fd565b600a8451111561175d5760405162461bcd60e51b815260206004820152600d60248201526c5a75207669656c65205461677360981b604482015260640161043d565b610400835111156117805760405162461bcd60e51b815260040161043d90612434565b600082116117d05760405162461bcd60e51b815260206004820152601b60248201527f54696d657374616d70206d7573732067657365747a74207365696e0000000000604482015260640161043d565b60058054600091826117e183612460565b9091555060008181526002602052604090208181559091506001810161180788826124c9565b50855161181d9060028301906020890190611b06565b506003810161182c86826124c9565b5060048101805460ff191690556005810184905560068101805460ff60a01b19339081166001600160a81b031990921691909117600160a01b17909155600090815260036020908152604082208054600181018255908352908220018390555b86518110156119695760008782815181106118a9576118a9612376565b60200260200101515111156119615760048782815181106118cc576118cc612376565b60200260200101516040516118e19190612588565b908152604051602091819003820190208054600181018255600091825291902001839055865187908290811061191957611919612376565b602002602001015160405161192e9190612588565b6040519081900381209084907f9da4103e4415d3054fe6fa0d64f2d023c294f27bba819d1414f0f6eb3fc80cfd90600090a35b60010161188c565b50604051339061197a908990612588565b6040805191829003822060008352602083018890529185917fd7f3699bdf529173e3144f5c4e0206fa4bacb3e8773f66c5aac3dcd778d80986910160405180910390a45090506119c960018055565b949350505050565b6119d9611a0c565b6001600160a01b038116611a0357604051631e4fbdf760e01b81526000600482015260240161043d565b6110c081611a39565b6000546001600160a01b0316331461082a5760405163118cdaa760e01b815233600482015260240161043d565b600080546001600160a01b038381166001600160a01b0319831681178455604051919092169283917f8be0079c531659141344cd1fd0a4f28419497f9722a3daafe3b4186f6b6457e09190a35050565b600260015403611aac57604051633ee5aeb560e01b815260040160405180910390fd5b6002600155565b60405180610100016040528060008152602001606081526020016060815260200160608152602001600060ff1681526020016000815260200160006001600160a01b031681526020016000151581525090565b828054828255906000526020600020908101928215611b4c579160200282015b82811115611b4c5782518290611b3c90826124c9565b5091602001919060010190611b26565b50611b58929150611b5c565b5090565b80821115611b58576000611b708282611b79565b50600101611b5c565b508054611b859061238c565b6000825580601f10611b95575050565b601f0160209004906000526020600020908101906110c091905b80821115611b585760008155600101611baf565b80356001600160a01b0381168114611bda57600080fd5b919050565b60008060408385031215611bf257600080fd5b611bfb83611bc3565b946020939093013593505050565b634e487b7160e01b600052604160045260246000fd5b604051601f8201601f191681016001600160401b0381118282101715611c4757611c47611c09565b604052919050565b60006001600160401b03821115611c6857611c68611c09565b5060051b60200190565b60006020808385031215611c8557600080fd5b82356001600160401b03811115611c9b57600080fd5b8301601f81018513611cac57600080fd5b8035611cbf611cba82611c4f565b611c1f565b81815260059190911b82018301908381019087831115611cde57600080fd5b928401925b82841015611cfc57833582529284019290840190611ce3565b979650505050505050565b60005b83811015611d22578181015183820152602001611d0a565b50506000910152565b60008151808452611d43816020860160208601611d07565b601f01601f19169290920160200192915050565b6000610100825184526020808401518282870152611d7783870182611d2b565b925050604084015185830360408701528281518085528385019150838160051b860101848401935060005b82811015611dd057601f19878303018452611dbe828651611d2b565b94860194938601939150600101611da2565b506060880151955088810360608a0152611dea8187611d2b565b955050505050506080830151611e05608086018260ff169052565b5060a083015160a085015260c0830151611e2a60c08601826001600160a01b03169052565b5060e0830151611e3e60e086018215159052565b509392505050565b600060208083016020845280855180835260408601915060408160051b87010192506020870160005b82811015611e9d57603f19888603018452611e8b858351611d57565b94509285019290850190600101611e6f565b5092979650505050505050565b600060208284031215611ebc57600080fd5b5035919050565b602081526000611ed66020830184611d2b565b9392505050565b600082601f830112611eee57600080fd5b81356001600160401b03811115611f0757611f07611c09565b611f1a601f8201601f1916602001611c1f565b818152846020838601011115611f2f57600080fd5b816020850160208301376000918101602001919091529392505050565b600082601f830112611f5d57600080fd5b81356020611f6d611cba83611c4f565b82815260059290921b84018101918181019086841115611f8c57600080fd5b8286015b84811015611fcb5780356001600160401b03811115611faf5760008081fd5b611fbd8986838b0101611edd565b845250918301918301611f90565b509695505050505050565b803560ff81168114611bda57600080fd5b600080600080600060a08688031215611fff57600080fd5b85356001600160401b038082111561201657600080fd5b61202289838a01611edd565b9650602088013591508082111561203857600080fd5b61204489838a01611f4c565b9550604088013591508082111561205a57600080fd5b5061206788828901611edd565b93505061207660608701611fd6565b949793965091946080013592915050565b60006020828403121561209957600080fd5b611ed682611fd6565b60008151808452602080850194506020840160005b838110156120d3578151875295820195908201906001016120b7565b509495945050505050565b602081526000611ed660208301846120a2565b60006020828403121561210357600080fd5b81356001600160401b0381111561211957600080fd5b6119c984828501611edd565b60006020828403121561213757600080fd5b611ed682611bc3565b60008060006060848603121561215557600080fd5b8335925060208401356001600160401b038082111561217357600080fd5b61217f87838801611edd565b9350604086013591508082111561219557600080fd5b506121a286828701611edd565b9150509250925092565b87815260e0602082015260006121c560e0830189611d2b565b82810360408401526121d78189611d2b565b60ff979097166060840152505060808101939093526001600160a01b039190911660a0830152151560c0909101529392505050565b602081526000611ed66020830184611d57565b604080825283519082018190526000906020906060840190828701845b8281101561225b57815160ff168452928401929084019060010161223c565b505050838103602085015261227081866120a2565b9695505050505050565b6000806040838503121561228d57600080fd5b82356001600160401b038111156122a357600080fd5b6122af85828601611edd565b95602094909401359450505050565b600080600080608085870312156122d457600080fd5b84356001600160401b03808211156122eb57600080fd5b6122f788838901611edd565b9550602087013591508082111561230d57600080fd5b61231988838901611f4c565b9450604087013591508082111561232f57600080fd5b5061233c87828801611edd565b949793965093946060013593505050565b634e487b7160e01b600052601160045260246000fd5b81810381811115610d2757610d2761234d565b634e487b7160e01b600052603260045260246000fd5b600181811c908216806123a057607f821691505b6020821081036123c057634e487b7160e01b600052602260045260246000fd5b50919050565b60208082526017908201527f45696e7472616720657869737469657274206e69636874000000000000000000604082015260600190565b60208082526018908201527f4349442064617266206e69636874206c656572207365696e0000000000000000604082015260600190565b602080825260129082015271456d62656464696e67207a752067726f737360701b604082015260600190565b6000600182016124725761247261234d565b5060010190565b601f821115610f60576000816000526020600020601f850160051c810160208610156124a25750805b601f850160051c820191505b818110156124c1578281556001016124ae565b505050505050565b81516001600160401b038111156124e2576124e2611c09565b6124f6816124f0845461238c565b84612479565b602080601f83116001811461252b57600084156125135750858301515b600019600386901b1c1916600185901b1785556124c1565b600085815260208120601f198616915b8281101561255a5788860151825594840194600190910190840161253b565b50858210156125785787850151600019600388901b60f8161c191681555b5050505050600190811b01905550565b6000825161259a818460208701611d07565b919091019291505056fea2646970667358221220baf425af97957ad493451e6bf1739005c640799654119dab1b22be4e32b46e6b64736f6c63430008180033",
  "linkReferences": {},
  "deployedLinkReferences": {}
}